{
  "contractName": "Voting",
  "abi": [
    {
      "anonymous": false,
      "inputs": [
        {
          "indexed": true,
          "internalType": "address",
          "name": "previousOwner",
          "type": "address"
        },
        {
          "indexed": true,
          "internalType": "address",
          "name": "newOwner",
          "type": "address"
        }
      ],
      "name": "OwnershipTransferred",
      "type": "event"
    },
    {
      "anonymous": false,
      "inputs": [
        {
          "indexed": false,
          "internalType": "uint256",
          "name": "proposalId",
          "type": "uint256"
        }
      ],
      "name": "ProposalRegistered",
      "type": "event"
    },
    {
      "anonymous": false,
      "inputs": [],
      "name": "ProposalsRegistrationEnded",
      "type": "event"
    },
    {
      "anonymous": false,
      "inputs": [],
      "name": "ProposalsRegistrationStarted",
      "type": "event"
    },
    {
      "anonymous": false,
      "inputs": [
        {
          "indexed": false,
          "internalType": "address",
          "name": "voter",
          "type": "address"
        },
        {
          "indexed": false,
          "internalType": "uint256",
          "name": "proposalId",
          "type": "uint256"
        }
      ],
      "name": "Voted",
      "type": "event"
    },
    {
      "anonymous": false,
      "inputs": [
        {
          "indexed": false,
          "internalType": "address",
          "name": "voterAddress",
          "type": "address"
        }
      ],
      "name": "VoterRegistered",
      "type": "event"
    },
    {
      "anonymous": false,
      "inputs": [],
      "name": "VotesTallied",
      "type": "event"
    },
    {
      "anonymous": false,
      "inputs": [],
      "name": "VotingSessionEnded",
      "type": "event"
    },
    {
      "anonymous": false,
      "inputs": [],
      "name": "VotingSessionStarted",
      "type": "event"
    },
    {
      "anonymous": false,
      "inputs": [
        {
          "indexed": false,
          "internalType": "enum Voting.WorkflowStatus",
          "name": "previousStatus",
          "type": "uint8"
        },
        {
          "indexed": false,
          "internalType": "enum Voting.WorkflowStatus",
          "name": "newStatus",
          "type": "uint8"
        }
      ],
      "name": "WorkflowStatusChange",
      "type": "event"
    },
    {
      "inputs": [],
      "name": "owner",
      "outputs": [
        {
          "internalType": "address",
          "name": "",
          "type": "address"
        }
      ],
      "stateMutability": "view",
      "type": "function",
      "constant": true
    },
    {
      "inputs": [
        {
          "internalType": "uint256",
          "name": "",
          "type": "uint256"
        }
      ],
      "name": "proposals",
      "outputs": [
        {
          "internalType": "string",
          "name": "description",
          "type": "string"
        },
        {
          "internalType": "uint256",
          "name": "voteCount",
          "type": "uint256"
        }
      ],
      "stateMutability": "view",
      "type": "function",
      "constant": true
    },
    {
      "inputs": [],
      "name": "renounceOwnership",
      "outputs": [],
      "stateMutability": "nonpayable",
      "type": "function"
    },
    {
      "inputs": [
        {
          "internalType": "address",
          "name": "newOwner",
          "type": "address"
        }
      ],
      "name": "transferOwnership",
      "outputs": [],
      "stateMutability": "nonpayable",
      "type": "function"
    },
    {
      "inputs": [],
      "name": "voteStatus",
      "outputs": [
        {
          "internalType": "enum Voting.WorkflowStatus",
          "name": "",
          "type": "uint8"
        }
      ],
      "stateMutability": "view",
      "type": "function",
      "constant": true
    },
    {
      "inputs": [
        {
          "internalType": "address",
          "name": "",
          "type": "address"
        }
      ],
      "name": "voters",
      "outputs": [
        {
          "internalType": "bool",
          "name": "isRegistered",
          "type": "bool"
        },
        {
          "internalType": "bool",
          "name": "hasVoted",
          "type": "bool"
        },
        {
          "internalType": "uint256",
          "name": "proposalsCount",
          "type": "uint256"
        },
        {
          "internalType": "uint256",
          "name": "votedProposalId",
          "type": "uint256"
        }
      ],
      "stateMutability": "view",
      "type": "function",
      "constant": true
    },
    {
      "inputs": [
        {
          "internalType": "uint256",
          "name": "",
          "type": "uint256"
        }
      ],
      "name": "whitelist",
      "outputs": [
        {
          "internalType": "address",
          "name": "",
          "type": "address"
        }
      ],
      "stateMutability": "view",
      "type": "function",
      "constant": true
    },
    {
      "inputs": [],
      "name": "winningProposalId",
      "outputs": [
        {
          "internalType": "uint256",
          "name": "",
          "type": "uint256"
        }
      ],
      "stateMutability": "view",
      "type": "function",
      "constant": true
    },
    {
      "inputs": [],
      "name": "getWhitelist",
      "outputs": [
        {
          "internalType": "address[]",
          "name": "",
          "type": "address[]"
        }
      ],
      "stateMutability": "view",
      "type": "function",
      "constant": true
    },
    {
      "inputs": [],
      "name": "getProposals",
      "outputs": [
        {
          "components": [
            {
              "internalType": "string",
              "name": "description",
              "type": "string"
            },
            {
              "internalType": "uint256",
              "name": "voteCount",
              "type": "uint256"
            }
          ],
          "internalType": "struct Voting.Proposal[]",
          "name": "",
          "type": "tuple[]"
        }
      ],
      "stateMutability": "view",
      "type": "function",
      "constant": true
    },
    {
      "inputs": [
        {
          "internalType": "address",
          "name": "_address",
          "type": "address"
        }
      ],
      "name": "addToWhitelist",
      "outputs": [],
      "stateMutability": "nonpayable",
      "type": "function"
    },
    {
      "inputs": [],
      "name": "proposalsRegistrationStart",
      "outputs": [],
      "stateMutability": "nonpayable",
      "type": "function"
    },
    {
      "inputs": [
        {
          "internalType": "string",
          "name": "_description",
          "type": "string"
        }
      ],
      "name": "proposalsRegistration",
      "outputs": [],
      "stateMutability": "nonpayable",
      "type": "function"
    },
    {
      "inputs": [],
      "name": "proposalsRegistrationEnd",
      "outputs": [],
      "stateMutability": "nonpayable",
      "type": "function"
    },
    {
      "inputs": [],
      "name": "votingSessionStart",
      "outputs": [],
      "stateMutability": "nonpayable",
      "type": "function"
    },
    {
      "inputs": [
        {
          "internalType": "uint256",
          "name": "proposalId",
          "type": "uint256"
        }
      ],
      "name": "vote",
      "outputs": [],
      "stateMutability": "nonpayable",
      "type": "function"
    },
    {
      "inputs": [],
      "name": "votingSessionEnd",
      "outputs": [],
      "stateMutability": "nonpayable",
      "type": "function"
    },
    {
      "inputs": [],
      "name": "votesTally",
      "outputs": [],
      "stateMutability": "nonpayable",
      "type": "function"
    }
  ],
  "bytecode": "0x60806040523480156200001157600080fd5b50620000446200002f6200004a640100000000026401000000009004565b62000052640100000000026401000000009004565b62000116565b600033905090565b60008060009054906101000a900473ffffffffffffffffffffffffffffffffffffffff169050816000806101000a81548173ffffffffffffffffffffffffffffffffffffffff021916908373ffffffffffffffffffffffffffffffffffffffff1602179055508173ffffffffffffffffffffffffffffffffffffffff168173ffffffffffffffffffffffffffffffffffffffff167f8be0079c531659141344cd1fd0a4f28419497f9722a3daafe3b4186f6b6457e060405160405180910390a35050565b61291580620001266000396000f3fe608060405234801561001057600080fd5b5060043610610133576000357c010000000000000000000000000000000000000000000000000000000090048063a3ec138d116100bf578063c64963c51161008e578063c64963c514610290578063cba1b311146102ae578063d01f63f5146102b8578063e43252d7146102d6578063f2fde38b146102f257610133565b8063a3ec138d1461022d578063aa64547c14610260578063b20cd9d01461026a578063c217f6d01461027457610133565b80636970993c116101065780636970993c146101ad578063715018a6146101b75780637ae6ee32146101c15780637ebd1b30146101df5780638da5cb5b1461020f57610133565b80630121b93f14610138578063013cf08b146101545780632bf08b0b1461018557806362564c481461018f575b600080fd5b610152600480360381019061014d9190611d73565b61030e565b005b61016e60048036038101906101699190611d73565b61062e565b60405161017c9291906123db565b60405180910390f35b61018d6106ea565b005b6101976108e2565b6040516101a49190612330565b60405180910390f35b6101b56109dd565b005b6101bf610ca9565b005b6101c9610d31565b6040516101d69190612397565b60405180910390f35b6101f960048036038101906101f49190611d73565b610d44565b60405161020691906122ca565b60405180910390f35b610217610d83565b60405161022491906122ca565b60405180910390f35b61024760048036038101906102429190611d09565b610dac565b6040516102579493929190612352565b60405180910390f35b610268610df6565b005b610272610fee565b005b61028e60048036038101906102899190611d32565b6111e6565b005b6102986114be565b6040516102a5919061258b565b60405180910390f35b6102b66114c4565b005b6102c06116bc565b6040516102cd919061230e565b60405180910390f35b6102f060048036038101906102eb9190611d09565b61174a565b005b61030c60048036038101906103079190611d09565b611a10565b005b600460003373ffffffffffffffffffffffffffffffffffffffff1673ffffffffffffffffffffffffffffffffffffffff16815260200190815260200160002060000160009054906101000a900460ff1661039d576040517f08c379a0000000000000000000000000000000000000000000000000000000008152600401610394906124ab565b60405180910390fd5b600460003373ffffffffffffffffffffffffffffffffffffffff1673ffffffffffffffffffffffffffffffffffffffff16815260200190815260200160002060000160019054906101000a900460ff161561042d576040517f08c379a0000000000000000000000000000000000000000000000000000000008152600401610424906124cb565b60405180910390fd5b60036005811115610467577f4e487b7100000000000000000000000000000000000000000000000000000000600052602160045260246000fd5b600560009054906101000a900460ff1660058111156104af577f4e487b7100000000000000000000000000000000000000000000000000000000600052602160045260246000fd5b146104ef576040517f08c379a00000000000000000000000000000000000000000000000000000000081526004016104e69061256b565b60405180910390fd5b6001600460003373ffffffffffffffffffffffffffffffffffffffff1673ffffffffffffffffffffffffffffffffffffffff16815260200190815260200160002060000160016101000a81548160ff02191690831515021790555080600460003373ffffffffffffffffffffffffffffffffffffffff1673ffffffffffffffffffffffffffffffffffffffff16815260200190815260200160002060020181905550600281815481106105cb577f4e487b7100000000000000000000000000000000000000000000000000000000600052603260045260246000fd5b906000526020600020906002020160010160008154809291906105ed90612787565b91905055507f4d99b957a2bc29a30ebd96a7be8e68fe50a3c701db28a91436490b7d53870ca433826040516106239291906122e5565b60405180910390a150565b6002818154811061063e57600080fd5b906000526020600020906002020160009150905080600001805461066190612755565b80601f016020809104026020016040519081016040528092919081815260200182805461068d90612755565b80156106da5780601f106106af576101008083540402835291602001916106da565b820191906000526020600020905b8154815290600101906020018083116106bd57829003601f168201915b5050505050908060010154905082565b6106f2611b08565b73ffffffffffffffffffffffffffffffffffffffff16610710610d83565b73ffffffffffffffffffffffffffffffffffffffff1614610766576040517f08c379a000000000000000000000000000000000000000000000000000000000815260040161075d9061252b565b60405180910390fd5b600360058111156107a0577f4e487b7100000000000000000000000000000000000000000000000000000000600052602160045260246000fd5b600560009054906101000a900460ff1660058111156107e8577f4e487b7100000000000000000000000000000000000000000000000000000000600052602160045260246000fd5b14610828576040517f08c379a000000000000000000000000000000000000000000000000000000000815260040161081f9061256b565b60405180910390fd5b6004600560006101000a81548160ff02191690836005811115610874577f4e487b7100000000000000000000000000000000000000000000000000000000600052602160045260246000fd5b02179055507fc379d349a6301baf50fb2f98d829f4ae10b1cdb7c66f4e4d8117302df7b8cd4c60405160405180910390a17f0a97a4ee45751e2abf3e4fc8946939630b11b371ea8ae39ccdc3056e98f5cc3f600360046040516108d89291906123b2565b60405180910390a1565b60606002805480602002602001604051908101604052809291908181526020016000905b828210156109d4578382906000526020600020906002020160405180604001604052908160008201805461093990612755565b80601f016020809104026020016040519081016040528092919081815260200182805461096590612755565b80156109b25780601f10610987576101008083540402835291602001916109b2565b820191906000526020600020905b81548152906001019060200180831161099557829003601f168201915b5050505050815260200160018201548152505081526020019060010190610906565b50505050905090565b6109e5611b08565b73ffffffffffffffffffffffffffffffffffffffff16610a03610d83565b73ffffffffffffffffffffffffffffffffffffffff1614610a59576040517f08c379a0000000000000000000000000000000000000000000000000000000008152600401610a509061252b565b60405180910390fd5b60046005811115610a93577f4e487b7100000000000000000000000000000000000000000000000000000000600052602160045260246000fd5b600560009054906101000a900460ff166005811115610adb577f4e487b7100000000000000000000000000000000000000000000000000000000600052602160045260246000fd5b14610b1b576040517f08c379a0000000000000000000000000000000000000000000000000000000008152600401610b129061254b565b60405180910390fd5b60008060005b600280549050811015610be6578260028281548110610b69577f4e487b7100000000000000000000000000000000000000000000000000000000600052603260045260246000fd5b9060005260206000209060020201600101541115610bd35760028181548110610bbb577f4e487b7100000000000000000000000000000000000000000000000000000000600052603260045260246000fd5b90600052602060002090600202016001015492508091505b8080610bde90612787565b915050610b21565b508060038190555060058060006101000a81548160ff02191690836005811115610c39577f4e487b7100000000000000000000000000000000000000000000000000000000600052602160045260246000fd5b02179055507f0e5e95ff8725ab3e7a4b6b59998a4c344c2aa8d1485f5e60cb7f337768e6134760405160405180910390a17f0a97a4ee45751e2abf3e4fc8946939630b11b371ea8ae39ccdc3056e98f5cc3f60046005604051610c9d9291906123b2565b60405180910390a15050565b610cb1611b08565b73ffffffffffffffffffffffffffffffffffffffff16610ccf610d83565b73ffffffffffffffffffffffffffffffffffffffff1614610d25576040517f08c379a0000000000000000000000000000000000000000000000000000000008152600401610d1c9061252b565b60405180910390fd5b610d2f6000611b10565b565b600560009054906101000a900460ff1681565b60018181548110610d5457600080fd5b906000526020600020016000915054906101000a900473ffffffffffffffffffffffffffffffffffffffff1681565b60008060009054906101000a900473ffffffffffffffffffffffffffffffffffffffff16905090565b60046020528060005260406000206000915090508060000160009054906101000a900460ff16908060000160019054906101000a900460ff16908060010154908060020154905084565b610dfe611b08565b73ffffffffffffffffffffffffffffffffffffffff16610e1c610d83565b73ffffffffffffffffffffffffffffffffffffffff1614610e72576040517f08c379a0000000000000000000000000000000000000000000000000000000008152600401610e699061252b565b60405180910390fd5b60006005811115610eac577f4e487b7100000000000000000000000000000000000000000000000000000000600052602160045260246000fd5b600560009054906101000a900460ff166005811115610ef4577f4e487b7100000000000000000000000000000000000000000000000000000000600052602160045260246000fd5b14610f34576040517f08c379a0000000000000000000000000000000000000000000000000000000008152600401610f2b9061242b565b60405180910390fd5b6001600560006101000a81548160ff02191690836005811115610f80577f4e487b7100000000000000000000000000000000000000000000000000000000600052602160045260246000fd5b02179055507f344c25562921d075a298d34b6dd1fd00d36ff293974539dfd4a8c625d9f0064c60405160405180910390a17f0a97a4ee45751e2abf3e4fc8946939630b11b371ea8ae39ccdc3056e98f5cc3f60006001604051610fe49291906123b2565b60405180910390a1565b610ff6611b08565b73ffffffffffffffffffffffffffffffffffffffff16611014610d83565b73ffffffffffffffffffffffffffffffffffffffff161461106a576040517f08c379a00000000000000000000000000000000000000000000000000000000081526004016110619061252b565b60405180910390fd5b600260058111156110a4577f4e487b7100000000000000000000000000000000000000000000000000000000600052602160045260246000fd5b600560009054906101000a900460ff1660058111156110ec577f4e487b7100000000000000000000000000000000000000000000000000000000600052602160045260246000fd5b1461112c576040517f08c379a00000000000000000000000000000000000000000000000000000000081526004016111239061246b565b60405180910390fd5b6003600560006101000a81548160ff02191690836005811115611178577f4e487b7100000000000000000000000000000000000000000000000000000000600052602160045260246000fd5b02179055507f1b8e19a458c1bcd88553332c518cc5c4e2d5793e712ee766d4f1c14f672ef1f560405160405180910390a17f0a97a4ee45751e2abf3e4fc8946939630b11b371ea8ae39ccdc3056e98f5cc3f600260036040516111dc9291906123b2565b60405180910390a1565b600460003373ffffffffffffffffffffffffffffffffffffffff1673ffffffffffffffffffffffffffffffffffffffff16815260200190815260200160002060000160009054906101000a900460ff16611275576040517f08c379a000000000000000000000000000000000000000000000000000000000815260040161126c906124ab565b60405180910390fd5b600160058111156112af577f4e487b7100000000000000000000000000000000000000000000000000000000600052602160045260246000fd5b600560009054906101000a900460ff1660058111156112f7577f4e487b7100000000000000000000000000000000000000000000000000000000600052602160045260246000fd5b14611337576040517f08c379a000000000000000000000000000000000000000000000000000000000815260040161132e9061244b565b60405180910390fd5b6063600460003373ffffffffffffffffffffffffffffffffffffffff1673ffffffffffffffffffffffffffffffffffffffff1681526020019081526020016000206001015411156113bd576040517f08c379a00000000000000000000000000000000000000000000000000000000081526004016113b4906124eb565b60405180910390fd5b600460003373ffffffffffffffffffffffffffffffffffffffff1673ffffffffffffffffffffffffffffffffffffffff168152602001908152602001600020600101600081548092919061141090612787565b919050555060026040518060400160405280838152602001600081525090806001815401808255809150506001900390600052602060002090600202016000909190919091506000820151816000019080519060200190611472929190611bd4565b506020820151816001015550507f92e393e9b54e2f801d3ea4beb0c5e71a21cc34a5d34b77d0fb8a3aa1650dc18f6002805490506040516114b3919061258b565b60405180910390a150565b60035481565b6114cc611b08565b73ffffffffffffffffffffffffffffffffffffffff166114ea610d83565b73ffffffffffffffffffffffffffffffffffffffff1614611540576040517f08c379a00000000000000000000000000000000000000000000000000000000081526004016115379061252b565b60405180910390fd5b6001600581111561157a577f4e487b7100000000000000000000000000000000000000000000000000000000600052602160045260246000fd5b600560009054906101000a900460ff1660058111156115c2577f4e487b7100000000000000000000000000000000000000000000000000000000600052602160045260246000fd5b14611602576040517f08c379a00000000000000000000000000000000000000000000000000000000081526004016115f99061248b565b60405180910390fd5b6002600560006101000a81548160ff0219169083600581111561164e577f4e487b7100000000000000000000000000000000000000000000000000000000600052602160045260246000fd5b02179055507f240cb87b2e4df4c318e72bd714d45a9cad60249e883ff56b1fffd83a4595a8fa60405160405180910390a17f0a97a4ee45751e2abf3e4fc8946939630b11b371ea8ae39ccdc3056e98f5cc3f600160026040516116b29291906123b2565b60405180910390a1565b6060600180548060200260200160405190810160405280929190818152602001828054801561174057602002820191906000526020600020905b8160009054906101000a900473ffffffffffffffffffffffffffffffffffffffff1673ffffffffffffffffffffffffffffffffffffffff16815260200190600101908083116116f6575b5050505050905090565b611752611b08565b73ffffffffffffffffffffffffffffffffffffffff16611770610d83565b73ffffffffffffffffffffffffffffffffffffffff16146117c6576040517f08c379a00000000000000000000000000000000000000000000000000000000081526004016117bd9061252b565b60405180910390fd5b60006005811115611800577f4e487b7100000000000000000000000000000000000000000000000000000000600052602160045260246000fd5b600560009054906101000a900460ff166005811115611848577f4e487b7100000000000000000000000000000000000000000000000000000000600052602160045260246000fd5b14611888576040517f08c379a000000000000000000000000000000000000000000000000000000000815260040161187f9061242b565b60405180910390fd5b600460008273ffffffffffffffffffffffffffffffffffffffff1673ffffffffffffffffffffffffffffffffffffffff16815260200190815260200160002060000160009054906101000a900460ff1615611918576040517f08c379a000000000000000000000000000000000000000000000000000000000815260040161190f9061250b565b60405180910390fd5b6001600460008373ffffffffffffffffffffffffffffffffffffffff1673ffffffffffffffffffffffffffffffffffffffff16815260200190815260200160002060000160006101000a81548160ff0219169083151502179055506001819080600181540180825580915050600190039060005260206000200160009091909190916101000a81548173ffffffffffffffffffffffffffffffffffffffff021916908373ffffffffffffffffffffffffffffffffffffffff1602179055507fb6be2187d059cc2a55fe29e0e503b566e1e0f8c8780096e185429350acffd3dd81604051611a0591906122ca565b60405180910390a150565b611a18611b08565b73ffffffffffffffffffffffffffffffffffffffff16611a36610d83565b73ffffffffffffffffffffffffffffffffffffffff1614611a8c576040517f08c379a0000000000000000000000000000000000000000000000000000000008152600401611a839061252b565b60405180910390fd5b600073ffffffffffffffffffffffffffffffffffffffff168173ffffffffffffffffffffffffffffffffffffffff161415611afc576040517f08c379a0000000000000000000000000000000000000000000000000000000008152600401611af39061240b565b60405180910390fd5b611b0581611b10565b50565b600033905090565b60008060009054906101000a900473ffffffffffffffffffffffffffffffffffffffff169050816000806101000a81548173ffffffffffffffffffffffffffffffffffffffff021916908373ffffffffffffffffffffffffffffffffffffffff1602179055508173ffffffffffffffffffffffffffffffffffffffff168173ffffffffffffffffffffffffffffffffffffffff167f8be0079c531659141344cd1fd0a4f28419497f9722a3daafe3b4186f6b6457e060405160405180910390a35050565b828054611be090612755565b90600052602060002090601f016020900481019282611c025760008555611c49565b82601f10611c1b57805160ff1916838001178555611c49565b82800160010185558215611c49579182015b82811115611c48578251825591602001919060010190611c2d565b5b509050611c569190611c5a565b5090565b5b80821115611c73576000816000905550600101611c5b565b5090565b6000611c8a611c85846125d7565b6125a6565b905082815260208101848484011115611ca257600080fd5b611cad848285612713565b509392505050565b600081359050611cc4816128b1565b92915050565b600082601f830112611cdb57600080fd5b8135611ceb848260208601611c77565b91505092915050565b600081359050611d03816128c8565b92915050565b600060208284031215611d1b57600080fd5b6000611d2984828501611cb5565b91505092915050565b600060208284031215611d4457600080fd5b600082013567ffffffffffffffff811115611d5e57600080fd5b611d6a84828501611cca565b91505092915050565b600060208284031215611d8557600080fd5b6000611d9384828501611cf4565b91505092915050565b6000611da88383611dc8565b60208301905092915050565b6000611dc0838361226f565b905092915050565b611dd1816126a6565b82525050565b611de0816126a6565b82525050565b6000611df182612627565b611dfb8185612662565b9350611e0683612607565b8060005b83811015611e37578151611e1e8882611d9c565b9750611e2983612648565b925050600181019050611e0a565b5085935050505092915050565b6000611e4f82612632565b611e598185612673565b935083602082028501611e6b85612617565b8060005b85811015611ea75784840389528151611e888582611db4565b9450611e9383612655565b925060208a01995050600181019050611e6f565b50829750879550505050505092915050565b611ec2816126b8565b82525050565b611ed181612701565b82525050565b6000611ee28261263d565b611eec8185612684565b9350611efc818560208601612722565b611f058161288c565b840191505092915050565b6000611f1b8261263d565b611f258185612695565b9350611f35818560208601612722565b611f3e8161288c565b840191505092915050565b6000611f56602683612695565b91507f4f776e61626c653a206e6577206f776e657220697320746865207a65726f206160008301527f64647265737300000000000000000000000000000000000000000000000000006020830152604082019050919050565b6000611fbc600383612695565b91507f45523100000000000000000000000000000000000000000000000000000000006000830152602082019050919050565b6000611ffc600383612695565b91507f45523400000000000000000000000000000000000000000000000000000000006000830152602082019050919050565b600061203c600383612695565b91507f45523700000000000000000000000000000000000000000000000000000000006000830152602082019050919050565b600061207c600383612695565b91507f45523600000000000000000000000000000000000000000000000000000000006000830152602082019050919050565b60006120bc600383612695565b91507f45523300000000000000000000000000000000000000000000000000000000006000830152602082019050919050565b60006120fc600383612695565b91507f45523800000000000000000000000000000000000000000000000000000000006000830152602082019050919050565b600061213c600383612695565b91507f45523500000000000000000000000000000000000000000000000000000000006000830152602082019050919050565b600061217c600383612695565b91507f45523200000000000000000000000000000000000000000000000000000000006000830152602082019050919050565b60006121bc602083612695565b91507f4f776e61626c653a2063616c6c6572206973206e6f7420746865206f776e65726000830152602082019050919050565b60006121fc600483612695565b91507f45523130000000000000000000000000000000000000000000000000000000006000830152602082019050919050565b600061223c600383612695565b91507f45523900000000000000000000000000000000000000000000000000000000006000830152602082019050919050565b6000604083016000830151848203600086015261228c8282611ed7565b91505060208301516122a160208601826122ac565b508091505092915050565b6122b5816126f7565b82525050565b6122c4816126f7565b82525050565b60006020820190506122df6000830184611dd7565b92915050565b60006040820190506122fa6000830185611dd7565b61230760208301846122bb565b9392505050565b600060208201905081810360008301526123288184611de6565b905092915050565b6000602082019050818103600083015261234a8184611e44565b905092915050565b60006080820190506123676000830187611eb9565b6123746020830186611eb9565b61238160408301856122bb565b61238e60608301846122bb565b95945050505050565b60006020820190506123ac6000830184611ec8565b92915050565b60006040820190506123c76000830185611ec8565b6123d46020830184611ec8565b9392505050565b600060408201905081810360008301526123f58185611f10565b905061240460208301846122bb565b9392505050565b6000602082019050818103600083015261242481611f49565b9050919050565b6000602082019050818103600083015261244481611faf565b9050919050565b6000602082019050818103600083015261246481611fef565b9050919050565b600060208201905081810360008301526124848161202f565b9050919050565b600060208201905081810360008301526124a48161206f565b9050919050565b600060208201905081810360008301526124c4816120af565b9050919050565b600060208201905081810360008301526124e4816120ef565b9050919050565b600060208201905081810360008301526125048161212f565b9050919050565b600060208201905081810360008301526125248161216f565b9050919050565b60006020820190508181036000830152612544816121af565b9050919050565b60006020820190508181036000830152612564816121ef565b9050919050565b600060208201905081810360008301526125848161222f565b9050919050565b60006020820190506125a060008301846122bb565b92915050565b6000604051905081810181811067ffffffffffffffff821117156125cd576125cc61285d565b5b8060405250919050565b600067ffffffffffffffff8211156125f2576125f161285d565b5b601f19601f8301169050602081019050919050565b6000819050602082019050919050565b6000819050602082019050919050565b600081519050919050565b600081519050919050565b600081519050919050565b6000602082019050919050565b6000602082019050919050565b600082825260208201905092915050565b600082825260208201905092915050565b600082825260208201905092915050565b600082825260208201905092915050565b60006126b1826126d7565b9050919050565b60008115159050919050565b60008190506126d28261289d565b919050565b600073ffffffffffffffffffffffffffffffffffffffff82169050919050565b6000819050919050565b600061270c826126c4565b9050919050565b82818337600083830152505050565b60005b83811015612740578082015181840152602081019050612725565b8381111561274f576000848401525b50505050565b6000600282049050600182168061276d57607f821691505b602082108114156127815761278061282e565b5b50919050565b6000612792826126f7565b91507fffffffffffffffffffffffffffffffffffffffffffffffffffffffffffffffff8214156127c5576127c46127d0565b5b600182019050919050565b7f4e487b7100000000000000000000000000000000000000000000000000000000600052601160045260246000fd5b7f4e487b7100000000000000000000000000000000000000000000000000000000600052602160045260246000fd5b7f4e487b7100000000000000000000000000000000000000000000000000000000600052602260045260246000fd5b7f4e487b7100000000000000000000000000000000000000000000000000000000600052604160045260246000fd5b6000601f19601f8301169050919050565b600681106128ae576128ad6127ff565b5b50565b6128ba816126a6565b81146128c557600080fd5b50565b6128d1816126f7565b81146128dc57600080fd5b5056fea264697066735822122095e0aca22197a56cd389766f95329e89e7b1561c8041cc7bc333be479cc6cf8c64736f6c63430008000033",
  "immutableReferences": {},
  "source": "// SPDX-License-Identifier: UNLICENSED\r\npragma solidity 0.8.0;\r\n\r\nimport \"./Ownable.sol\";\r\n\r\ncontract Voting is Ownable {\r\n    \r\n    struct Voter {\r\n        bool isRegistered;\r\n        bool hasVoted;\r\n        uint proposalsCount;\r\n        uint votedProposalId;\r\n    }\r\n    \r\n    struct Proposal {\r\n        string description;\r\n        uint voteCount;\r\n    }\r\n    \r\n    enum WorkflowStatus {\r\n        RegisteringVoters,\r\n        ProposalsRegistrationStarted,\r\n        ProposalsRegistrationEnded,\r\n        VotingSessionStarted,\r\n        VotingSessionEnded,\r\n        VotesTallied\r\n    }\r\n    \r\n    address[] public whitelist;\r\n    Proposal[] public proposals;\r\n    uint public winningProposalId;\r\n    mapping (address => Voter) public voters;\r\n    WorkflowStatus public voteStatus;\r\n    \r\n    event VoterRegistered(address voterAddress);\r\n    event ProposalsRegistrationStarted();\r\n    event ProposalsRegistrationEnded();\r\n    event ProposalRegistered(uint proposalId);\r\n    event VotingSessionStarted();\r\n    event Voted (address voter, uint proposalId);\r\n    event VotingSessionEnded();\r\n    event VotesTallied();\r\n    event WorkflowStatusChange(WorkflowStatus previousStatus, WorkflowStatus newStatus);\r\n\r\n    /** @dev Return a list with all allowed address */\r\n    function getWhitelist() external view returns(address[] memory) {\r\n        return whitelist;\r\n    }\r\n    \r\n    /** @dev Return a list of proposals */\r\n    function getProposals() external view returns(Proposal[] memory) {\r\n        return proposals;\r\n    }\r\n    \r\n    /** @dev The administrator registers a voters of voters identified by their Ethereum address.\r\n     *  @param _address voter's ethereum address.\r\n     *  ER1 : The vote has already started.\r\n     *  ER2 : The voter already exist.\r\n     */ \r\n    function addToWhitelist(address _address) external onlyOwner {\r\n        require(voteStatus == WorkflowStatus.RegisteringVoters, \"ER1\");\r\n        require(!voters[_address].isRegistered, \"ER2\");\r\n        voters[_address].isRegistered = true;\r\n        whitelist.push(_address);\r\n\r\n        emit VoterRegistered(_address);\r\n    }\r\n    \r\n    /** @dev The administrator starts the proposal registration session.\r\n     *  ER1 : The vote has already started.\r\n     */ \r\n    function proposalsRegistrationStart() external onlyOwner {\r\n        require(voteStatus == WorkflowStatus.RegisteringVoters, \"ER1\");\r\n        voteStatus = WorkflowStatus.ProposalsRegistrationStarted;\r\n        \r\n        emit ProposalsRegistrationStarted();\r\n        emit WorkflowStatusChange(WorkflowStatus.RegisteringVoters, WorkflowStatus.ProposalsRegistrationStarted);\r\n    }\r\n    \r\n    /** @dev Registered voters are allowed to register their proposals while the registration session is active.\r\n     *  @param _description Content of the proposal.\r\n     *  ER3 : You're not allowed to vote.\r\n     *  ER4 : Registration has not yet started or is already ended.\r\n     *  ER5 : The number of proposals per voter is limited to 100.\r\n     */\r\n    function proposalsRegistration(string memory _description) external {\r\n        require(voters[msg.sender].isRegistered, \"ER3\");\r\n        require(voteStatus == WorkflowStatus.ProposalsRegistrationStarted, \"ER4\");\r\n        require(voters[msg.sender].proposalsCount <= 99, \"ER5\");\r\n        voters[msg.sender].proposalsCount ++;\r\n        proposals.push(Proposal(_description, 0));\r\n        \r\n        emit ProposalRegistered(proposals.length);\r\n    }\r\n    \r\n    /** @dev The administrator closes the proposal registration session.\r\n     *  ER6 : Registration has to be started\r\n     */\r\n    function proposalsRegistrationEnd() external onlyOwner {\r\n        require(voteStatus == WorkflowStatus.ProposalsRegistrationStarted, \"ER6\");\r\n        voteStatus = WorkflowStatus.ProposalsRegistrationEnded;\r\n        emit ProposalsRegistrationEnded();\r\n        emit WorkflowStatusChange(WorkflowStatus.ProposalsRegistrationStarted, WorkflowStatus.ProposalsRegistrationEnded);\r\n    }\r\n    \r\n    /** @dev Administrator starts the voting session.\r\n     *  ER7 : Registration has to be ended.\r\n     */\r\n    function votingSessionStart() external onlyOwner {\r\n        require(voteStatus == WorkflowStatus.ProposalsRegistrationEnded, \"ER7\");\r\n        voteStatus = WorkflowStatus.VotingSessionStarted;\r\n        emit VotingSessionStarted();\r\n        emit WorkflowStatusChange(WorkflowStatus.ProposalsRegistrationEnded, WorkflowStatus.VotingSessionStarted);\r\n    }\r\n    \r\n    /** @dev Registered voters vote for their preferred proposals.\r\n     *  @param proposalId Number of the voter's preferred proposal.\r\n     *  ER3 : You're not allowed to vote.\r\n     *  ER8 : You have already voted.\r\n     *  ER9 : The voting session has to be started.\r\n     */\r\n    function vote(uint proposalId) external {\r\n        require(voters[msg.sender].isRegistered, \"ER3\");\r\n        require(!voters[msg.sender].hasVoted, \"ER8\");\r\n        require(voteStatus == WorkflowStatus.VotingSessionStarted, \"ER9\");\r\n        \r\n        voters[msg.sender].hasVoted = true;\r\n        voters[msg.sender].votedProposalId = proposalId;\r\n        proposals[proposalId].voteCount ++;\r\n        \r\n        // Other method to count the vote\r\n        // if (proposals[proposalId].voteCount > proposals[winningProposalId].voteCount) {\r\n        //     winningProposalId = proposalId;\r\n        // }\r\n        \r\n        emit Voted(msg.sender, proposalId);\r\n    }\r\n    \r\n    /** @dev The administrator ends the voting session.\r\n     *  ER9 : The voting session has to be started.\r\n     */\r\n    function votingSessionEnd() external onlyOwner {\r\n        require(voteStatus == WorkflowStatus.VotingSessionStarted, \"ER9\");\r\n        voteStatus = WorkflowStatus.VotingSessionEnded;\r\n        emit VotingSessionEnded();\r\n        emit WorkflowStatusChange(WorkflowStatus.VotingSessionStarted , WorkflowStatus.VotingSessionEnded);\r\n    }\r\n    \r\n    /** @dev The administrator counts the votes.\r\n     *  ER10 : The voting session has to be ended.\r\n     */\r\n    function votesTally() external onlyOwner {\r\n        require(voteStatus == WorkflowStatus.VotingSessionEnded, \"ER10\");\r\n        uint _count;\r\n        uint _tempWinner;\r\n        for (uint i = 0; i < proposals.length; i++) {\r\n            if (proposals[i].voteCount > _count) {\r\n                _count = proposals[i].voteCount;\r\n                _tempWinner = i;\r\n            }\r\n            \r\n        }\r\n        winningProposalId = _tempWinner;\r\n        voteStatus = WorkflowStatus.VotesTallied;\r\n        emit VotesTallied();\r\n        emit WorkflowStatusChange(WorkflowStatus.VotingSessionEnded , WorkflowStatus.VotesTallied);\r\n    }\r\n}",
  "sourcePath": "D:\\TAF\\Alyra\\Cours\\DApp\\VotingDAppV1\\contracts\\Voting.sol",
  "compiler": {
    "name": "solc",
    "version": "0.8.0+commit.c7dfd78e.Emscripten.clang"
  },
  "schemaVersion": "3.4.3",
  "updatedAt": "2021-09-03T12:57:02.270Z",
  "networkType": "ethereum",
  "devdoc": {
    "kind": "dev",
    "methods": {
      "addToWhitelist(address)": {
        "details": "The administrator registers a voters of voters identified by their Ethereum address.",
        "params": {
          "_address": "voter's ethereum address.  ER1 : The vote has already started.  ER2 : The voter already exist."
        }
      },
      "getProposals()": {
        "details": "Return a list of proposals "
      },
      "getWhitelist()": {
        "details": "Return a list with all allowed address "
      },
      "owner()": {
        "details": "Returns the address of the current owner."
      },
      "proposalsRegistration(string)": {
        "details": "Registered voters are allowed to register their proposals while the registration session is active.",
        "params": {
          "_description": "Content of the proposal.  ER3 : You're not allowed to vote.  ER4 : Registration has not yet started or is already ended.  ER5 : The number of proposals per voter is limited to 100."
        }
      },
      "proposalsRegistrationEnd()": {
        "details": "The administrator closes the proposal registration session.  ER6 : Registration has to be started"
      },
      "proposalsRegistrationStart()": {
        "details": "The administrator starts the proposal registration session.  ER1 : The vote has already started."
      },
      "renounceOwnership()": {
        "details": "Leaves the contract without owner. It will not be possible to call `onlyOwner` functions anymore. Can only be called by the current owner. NOTE: Renouncing ownership will leave the contract without an owner, thereby removing any functionality that is only available to the owner."
      },
      "transferOwnership(address)": {
        "details": "Transfers ownership of the contract to a new account (`newOwner`). Can only be called by the current owner."
      },
      "vote(uint256)": {
        "details": "Registered voters vote for their preferred proposals.",
        "params": {
          "proposalId": "Number of the voter's preferred proposal.  ER3 : You're not allowed to vote.  ER8 : You have already voted.  ER9 : The voting session has to be started."
        }
      },
      "votesTally()": {
        "details": "The administrator counts the votes.  ER10 : The voting session has to be ended."
      },
      "votingSessionEnd()": {
        "details": "The administrator ends the voting session.  ER9 : The voting session has to be started."
      },
      "votingSessionStart()": {
        "details": "Administrator starts the voting session.  ER7 : Registration has to be ended."
      }
    },
    "version": 1
  },
  "userdoc": {
    "kind": "user",
    "methods": {},
    "version": 1
  }
}