{
  "contractName": "Voting",
  "abi": [
    {
      "anonymous": false,
      "inputs": [
        {
          "indexed": true,
          "internalType": "address",
          "name": "previousOwner",
          "type": "address"
        },
        {
          "indexed": true,
          "internalType": "address",
          "name": "newOwner",
          "type": "address"
        }
      ],
      "name": "OwnershipTransferred",
      "type": "event"
    },
    {
      "anonymous": false,
      "inputs": [
        {
          "indexed": false,
          "internalType": "uint256",
          "name": "proposalId",
          "type": "uint256"
        }
      ],
      "name": "ProposalRegistered",
      "type": "event"
    },
    {
      "anonymous": false,
      "inputs": [],
      "name": "ProposalsRegistrationEnded",
      "type": "event"
    },
    {
      "anonymous": false,
      "inputs": [],
      "name": "ProposalsRegistrationStarted",
      "type": "event"
    },
    {
      "anonymous": false,
      "inputs": [
        {
          "indexed": false,
          "internalType": "address",
          "name": "voter",
          "type": "address"
        },
        {
          "indexed": false,
          "internalType": "uint256",
          "name": "proposalId",
          "type": "uint256"
        }
      ],
      "name": "Voted",
      "type": "event"
    },
    {
      "anonymous": false,
      "inputs": [
        {
          "indexed": false,
          "internalType": "address",
          "name": "voterAddress",
          "type": "address"
        }
      ],
      "name": "VoterRegistered",
      "type": "event"
    },
    {
      "anonymous": false,
      "inputs": [],
      "name": "VotesTallied",
      "type": "event"
    },
    {
      "anonymous": false,
      "inputs": [],
      "name": "VotingSessionEnded",
      "type": "event"
    },
    {
      "anonymous": false,
      "inputs": [],
      "name": "VotingSessionStarted",
      "type": "event"
    },
    {
      "anonymous": false,
      "inputs": [
        {
          "indexed": false,
          "internalType": "enum Voting.WorkflowStatus",
          "name": "previousStatus",
          "type": "uint8"
        },
        {
          "indexed": false,
          "internalType": "enum Voting.WorkflowStatus",
          "name": "newStatus",
          "type": "uint8"
        }
      ],
      "name": "WorkflowStatusChange",
      "type": "event"
    },
    {
      "inputs": [],
      "name": "owner",
      "outputs": [
        {
          "internalType": "address",
          "name": "",
          "type": "address"
        }
      ],
      "stateMutability": "view",
      "type": "function",
      "constant": true
    },
    {
      "inputs": [
        {
          "internalType": "uint256",
          "name": "",
          "type": "uint256"
        }
      ],
      "name": "proposals",
      "outputs": [
        {
          "internalType": "string",
          "name": "description",
          "type": "string"
        },
        {
          "internalType": "uint256",
          "name": "voteCount",
          "type": "uint256"
        }
      ],
      "stateMutability": "view",
      "type": "function",
      "constant": true
    },
    {
      "inputs": [],
      "name": "renounceOwnership",
      "outputs": [],
      "stateMutability": "nonpayable",
      "type": "function"
    },
    {
      "inputs": [
        {
          "internalType": "address",
          "name": "newOwner",
          "type": "address"
        }
      ],
      "name": "transferOwnership",
      "outputs": [],
      "stateMutability": "nonpayable",
      "type": "function"
    },
    {
      "inputs": [],
      "name": "voteStatus",
      "outputs": [
        {
          "internalType": "enum Voting.WorkflowStatus",
          "name": "",
          "type": "uint8"
        }
      ],
      "stateMutability": "view",
      "type": "function",
      "constant": true
    },
    {
      "inputs": [
        {
          "internalType": "address",
          "name": "",
          "type": "address"
        }
      ],
      "name": "voters",
      "outputs": [
        {
          "internalType": "bool",
          "name": "isRegistered",
          "type": "bool"
        },
        {
          "internalType": "bool",
          "name": "hasVoted",
          "type": "bool"
        },
        {
          "internalType": "uint256",
          "name": "proposalsCount",
          "type": "uint256"
        },
        {
          "internalType": "uint256",
          "name": "votedProposalId",
          "type": "uint256"
        }
      ],
      "stateMutability": "view",
      "type": "function",
      "constant": true
    },
    {
      "inputs": [
        {
          "internalType": "uint256",
          "name": "",
          "type": "uint256"
        }
      ],
      "name": "whitelist",
      "outputs": [
        {
          "internalType": "address",
          "name": "",
          "type": "address"
        }
      ],
      "stateMutability": "view",
      "type": "function",
      "constant": true
    },
    {
      "inputs": [],
      "name": "winningProposalId",
      "outputs": [
        {
          "internalType": "uint256",
          "name": "",
          "type": "uint256"
        }
      ],
      "stateMutability": "view",
      "type": "function",
      "constant": true
    },
    {
      "inputs": [],
      "name": "getWhitelist",
      "outputs": [
        {
          "internalType": "address[]",
          "name": "",
          "type": "address[]"
        }
      ],
      "stateMutability": "view",
      "type": "function",
      "constant": true
    },
    {
      "inputs": [],
      "name": "getProposals",
      "outputs": [
        {
          "components": [
            {
              "internalType": "string",
              "name": "description",
              "type": "string"
            },
            {
              "internalType": "uint256",
              "name": "voteCount",
              "type": "uint256"
            }
          ],
          "internalType": "struct Voting.Proposal[]",
          "name": "",
          "type": "tuple[]"
        }
      ],
      "stateMutability": "view",
      "type": "function",
      "constant": true
    },
    {
      "inputs": [
        {
          "internalType": "address",
          "name": "_address",
          "type": "address"
        }
      ],
      "name": "addToWhitelist",
      "outputs": [],
      "stateMutability": "nonpayable",
      "type": "function"
    },
    {
      "inputs": [],
      "name": "proposalsRegistrationStart",
      "outputs": [],
      "stateMutability": "nonpayable",
      "type": "function"
    },
    {
      "inputs": [
        {
          "internalType": "string",
          "name": "_description",
          "type": "string"
        }
      ],
      "name": "proposalsRegistration",
      "outputs": [],
      "stateMutability": "nonpayable",
      "type": "function"
    },
    {
      "inputs": [],
      "name": "proposalsRegistrationEnd",
      "outputs": [],
      "stateMutability": "nonpayable",
      "type": "function"
    },
    {
      "inputs": [],
      "name": "votingSessionStart",
      "outputs": [],
      "stateMutability": "nonpayable",
      "type": "function"
    },
    {
      "inputs": [
        {
          "internalType": "uint256",
          "name": "proposalId",
          "type": "uint256"
        }
      ],
      "name": "vote",
      "outputs": [],
      "stateMutability": "nonpayable",
      "type": "function"
    },
    {
      "inputs": [],
      "name": "votingSessionEnd",
      "outputs": [],
      "stateMutability": "nonpayable",
      "type": "function"
    },
    {
      "inputs": [],
      "name": "votesTally",
      "outputs": [],
      "stateMutability": "nonpayable",
      "type": "function"
    }
  ],
  "bytecode": "0x60806040523480156200001157600080fd5b50620000446200002f6200004a640100000000026401000000009004565b62000052640100000000026401000000009004565b62000116565b600033905090565b60008060009054906101000a900473ffffffffffffffffffffffffffffffffffffffff169050816000806101000a81548173ffffffffffffffffffffffffffffffffffffffff021916908373ffffffffffffffffffffffffffffffffffffffff1602179055508173ffffffffffffffffffffffffffffffffffffffff168173ffffffffffffffffffffffffffffffffffffffff167f8be0079c531659141344cd1fd0a4f28419497f9722a3daafe3b4186f6b6457e060405160405180910390a35050565b612a0980620001266000396000f3fe608060405234801561001057600080fd5b5060043610610133576000357c010000000000000000000000000000000000000000000000000000000090048063a3ec138d116100bf578063c64963c51161008e578063c64963c514610290578063cba1b311146102ae578063d01f63f5146102b8578063e43252d7146102d6578063f2fde38b146102f257610133565b8063a3ec138d1461022d578063aa64547c14610260578063b20cd9d01461026a578063c217f6d01461027457610133565b80636970993c116101065780636970993c146101ad578063715018a6146101b75780637ae6ee32146101c15780637ebd1b30146101df5780638da5cb5b1461020f57610133565b80630121b93f14610138578063013cf08b146101545780632bf08b0b1461018557806362564c481461018f575b600080fd5b610152600480360381019061014d9190611dd3565b61030e565b005b61016e60048036038101906101699190611dd3565b610682565b60405161017c92919061247b565b60405180910390f35b61018d61073e565b005b610197610936565b6040516101a491906123d0565b60405180910390f35b6101b5610a31565b005b6101bf610cfd565b005b6101c9610d85565b6040516101d69190612437565b60405180910390f35b6101f960048036038101906101f49190611dd3565b610d98565b604051610206919061236a565b60405180910390f35b610217610dd7565b604051610224919061236a565b60405180910390f35b61024760048036038101906102429190611d69565b610e00565b60405161025794939291906123f2565b60405180910390f35b610268610e4a565b005b610272611042565b005b61028e60048036038101906102899190611d92565b61123a565b005b61029861151e565b6040516102a5919061264b565b60405180910390f35b6102b6611524565b005b6102c061171c565b6040516102cd91906123ae565b60405180910390f35b6102f060048036038101906102eb9190611d69565b6117aa565b005b61030c60048036038101906103079190611d69565b611a70565b005b600460003373ffffffffffffffffffffffffffffffffffffffff1673ffffffffffffffffffffffffffffffffffffffff16815260200190815260200160002060000160009054906101000a900460ff1661039d576040517f08c379a00000000000000000000000000000000000000000000000000000000081526004016103949061254b565b60405180910390fd5b600460003373ffffffffffffffffffffffffffffffffffffffff1673ffffffffffffffffffffffffffffffffffffffff16815260200190815260200160002060000160019054906101000a900460ff161561042d576040517f08c379a00000000000000000000000000000000000000000000000000000000081526004016104249061256b565b60405180910390fd5b600160028054905061043f9190612766565b811115610481576040517f08c379a00000000000000000000000000000000000000000000000000000000081526004016104789061262b565b60405180910390fd5b600360058111156104bb577f4e487b7100000000000000000000000000000000000000000000000000000000600052602160045260246000fd5b600560009054906101000a900460ff166005811115610503577f4e487b7100000000000000000000000000000000000000000000000000000000600052602160045260246000fd5b14610543576040517f08c379a000000000000000000000000000000000000000000000000000000000815260040161053a906125eb565b60405180910390fd5b6001600460003373ffffffffffffffffffffffffffffffffffffffff1673ffffffffffffffffffffffffffffffffffffffff16815260200190815260200160002060000160016101000a81548160ff02191690831515021790555080600460003373ffffffffffffffffffffffffffffffffffffffff1673ffffffffffffffffffffffffffffffffffffffff168152602001908152602001600020600201819055506002818154811061061f577f4e487b7100000000000000000000000000000000000000000000000000000000600052603260045260246000fd5b906000526020600020906002020160010160008154809291906106419061287b565b91905055507f4d99b957a2bc29a30ebd96a7be8e68fe50a3c701db28a91436490b7d53870ca43382604051610677929190612385565b60405180910390a150565b6002818154811061069257600080fd5b90600052602060002090600202016000915090508060000180546106b590612849565b80601f01602080910402602001604051908101604052809291908181526020018280546106e190612849565b801561072e5780601f106107035761010080835404028352916020019161072e565b820191906000526020600020905b81548152906001019060200180831161071157829003601f168201915b5050505050908060010154905082565b610746611b68565b73ffffffffffffffffffffffffffffffffffffffff16610764610dd7565b73ffffffffffffffffffffffffffffffffffffffff16146107ba576040517f08c379a00000000000000000000000000000000000000000000000000000000081526004016107b1906125cb565b60405180910390fd5b600360058111156107f4577f4e487b7100000000000000000000000000000000000000000000000000000000600052602160045260246000fd5b600560009054906101000a900460ff16600581111561083c577f4e487b7100000000000000000000000000000000000000000000000000000000600052602160045260246000fd5b1461087c576040517f08c379a0000000000000000000000000000000000000000000000000000000008152600401610873906125eb565b60405180910390fd5b6004600560006101000a81548160ff021916908360058111156108c8577f4e487b7100000000000000000000000000000000000000000000000000000000600052602160045260246000fd5b02179055507fc379d349a6301baf50fb2f98d829f4ae10b1cdb7c66f4e4d8117302df7b8cd4c60405160405180910390a17f0a97a4ee45751e2abf3e4fc8946939630b11b371ea8ae39ccdc3056e98f5cc3f6003600460405161092c929190612452565b60405180910390a1565b60606002805480602002602001604051908101604052809291908181526020016000905b82821015610a28578382906000526020600020906002020160405180604001604052908160008201805461098d90612849565b80601f01602080910402602001604051908101604052809291908181526020018280546109b990612849565b8015610a065780601f106109db57610100808354040283529160200191610a06565b820191906000526020600020905b8154815290600101906020018083116109e957829003601f168201915b505050505081526020016001820154815250508152602001906001019061095a565b50505050905090565b610a39611b68565b73ffffffffffffffffffffffffffffffffffffffff16610a57610dd7565b73ffffffffffffffffffffffffffffffffffffffff1614610aad576040517f08c379a0000000000000000000000000000000000000000000000000000000008152600401610aa4906125cb565b60405180910390fd5b60046005811115610ae7577f4e487b7100000000000000000000000000000000000000000000000000000000600052602160045260246000fd5b600560009054906101000a900460ff166005811115610b2f577f4e487b7100000000000000000000000000000000000000000000000000000000600052602160045260246000fd5b14610b6f576040517f08c379a0000000000000000000000000000000000000000000000000000000008152600401610b669061260b565b60405180910390fd5b60008060005b600280549050811015610c3a578260028281548110610bbd577f4e487b7100000000000000000000000000000000000000000000000000000000600052603260045260246000fd5b9060005260206000209060020201600101541115610c275760028181548110610c0f577f4e487b7100000000000000000000000000000000000000000000000000000000600052603260045260246000fd5b90600052602060002090600202016001015492508091505b8080610c329061287b565b915050610b75565b508060038190555060058060006101000a81548160ff02191690836005811115610c8d577f4e487b7100000000000000000000000000000000000000000000000000000000600052602160045260246000fd5b02179055507f0e5e95ff8725ab3e7a4b6b59998a4c344c2aa8d1485f5e60cb7f337768e6134760405160405180910390a17f0a97a4ee45751e2abf3e4fc8946939630b11b371ea8ae39ccdc3056e98f5cc3f60046005604051610cf1929190612452565b60405180910390a15050565b610d05611b68565b73ffffffffffffffffffffffffffffffffffffffff16610d23610dd7565b73ffffffffffffffffffffffffffffffffffffffff1614610d79576040517f08c379a0000000000000000000000000000000000000000000000000000000008152600401610d70906125cb565b60405180910390fd5b610d836000611b70565b565b600560009054906101000a900460ff1681565b60018181548110610da857600080fd5b906000526020600020016000915054906101000a900473ffffffffffffffffffffffffffffffffffffffff1681565b60008060009054906101000a900473ffffffffffffffffffffffffffffffffffffffff16905090565b60046020528060005260406000206000915090508060000160009054906101000a900460ff16908060000160019054906101000a900460ff16908060010154908060020154905084565b610e52611b68565b73ffffffffffffffffffffffffffffffffffffffff16610e70610dd7565b73ffffffffffffffffffffffffffffffffffffffff1614610ec6576040517f08c379a0000000000000000000000000000000000000000000000000000000008152600401610ebd906125cb565b60405180910390fd5b60006005811115610f00577f4e487b7100000000000000000000000000000000000000000000000000000000600052602160045260246000fd5b600560009054906101000a900460ff166005811115610f48577f4e487b7100000000000000000000000000000000000000000000000000000000600052602160045260246000fd5b14610f88576040517f08c379a0000000000000000000000000000000000000000000000000000000008152600401610f7f906124cb565b60405180910390fd5b6001600560006101000a81548160ff02191690836005811115610fd4577f4e487b7100000000000000000000000000000000000000000000000000000000600052602160045260246000fd5b02179055507f344c25562921d075a298d34b6dd1fd00d36ff293974539dfd4a8c625d9f0064c60405160405180910390a17f0a97a4ee45751e2abf3e4fc8946939630b11b371ea8ae39ccdc3056e98f5cc3f60006001604051611038929190612452565b60405180910390a1565b61104a611b68565b73ffffffffffffffffffffffffffffffffffffffff16611068610dd7565b73ffffffffffffffffffffffffffffffffffffffff16146110be576040517f08c379a00000000000000000000000000000000000000000000000000000000081526004016110b5906125cb565b60405180910390fd5b600260058111156110f8577f4e487b7100000000000000000000000000000000000000000000000000000000600052602160045260246000fd5b600560009054906101000a900460ff166005811115611140577f4e487b7100000000000000000000000000000000000000000000000000000000600052602160045260246000fd5b14611180576040517f08c379a00000000000000000000000000000000000000000000000000000000081526004016111779061250b565b60405180910390fd5b6003600560006101000a81548160ff021916908360058111156111cc577f4e487b7100000000000000000000000000000000000000000000000000000000600052602160045260246000fd5b02179055507f1b8e19a458c1bcd88553332c518cc5c4e2d5793e712ee766d4f1c14f672ef1f560405160405180910390a17f0a97a4ee45751e2abf3e4fc8946939630b11b371ea8ae39ccdc3056e98f5cc3f60026003604051611230929190612452565b60405180910390a1565b600460003373ffffffffffffffffffffffffffffffffffffffff1673ffffffffffffffffffffffffffffffffffffffff16815260200190815260200160002060000160009054906101000a900460ff166112c9576040517f08c379a00000000000000000000000000000000000000000000000000000000081526004016112c09061254b565b60405180910390fd5b60016005811115611303577f4e487b7100000000000000000000000000000000000000000000000000000000600052602160045260246000fd5b600560009054906101000a900460ff16600581111561134b577f4e487b7100000000000000000000000000000000000000000000000000000000600052602160045260246000fd5b1461138b576040517f08c379a0000000000000000000000000000000000000000000000000000000008152600401611382906124eb565b60405180910390fd5b6063600460003373ffffffffffffffffffffffffffffffffffffffff1673ffffffffffffffffffffffffffffffffffffffff168152602001908152602001600020600101541115611411576040517f08c379a00000000000000000000000000000000000000000000000000000000081526004016114089061258b565b60405180910390fd5b600460003373ffffffffffffffffffffffffffffffffffffffff1673ffffffffffffffffffffffffffffffffffffffff16815260200190815260200160002060010160008154809291906114649061287b565b9190505550600260405180604001604052808381526020016000815250908060018154018082558091505060019003906000526020600020906002020160009091909190915060008201518160000190805190602001906114c6929190611c34565b506020820151816001015550507f92e393e9b54e2f801d3ea4beb0c5e71a21cc34a5d34b77d0fb8a3aa1650dc18f60016002805490506115069190612766565b604051611513919061264b565b60405180910390a150565b60035481565b61152c611b68565b73ffffffffffffffffffffffffffffffffffffffff1661154a610dd7565b73ffffffffffffffffffffffffffffffffffffffff16146115a0576040517f08c379a0000000000000000000000000000000000000000000000000000000008152600401611597906125cb565b60405180910390fd5b600160058111156115da577f4e487b7100000000000000000000000000000000000000000000000000000000600052602160045260246000fd5b600560009054906101000a900460ff166005811115611622577f4e487b7100000000000000000000000000000000000000000000000000000000600052602160045260246000fd5b14611662576040517f08c379a00000000000000000000000000000000000000000000000000000000081526004016116599061252b565b60405180910390fd5b6002600560006101000a81548160ff021916908360058111156116ae577f4e487b7100000000000000000000000000000000000000000000000000000000600052602160045260246000fd5b02179055507f240cb87b2e4df4c318e72bd714d45a9cad60249e883ff56b1fffd83a4595a8fa60405160405180910390a17f0a97a4ee45751e2abf3e4fc8946939630b11b371ea8ae39ccdc3056e98f5cc3f60016002604051611712929190612452565b60405180910390a1565b606060018054806020026020016040519081016040528092919081815260200182805480156117a057602002820191906000526020600020905b8160009054906101000a900473ffffffffffffffffffffffffffffffffffffffff1673ffffffffffffffffffffffffffffffffffffffff1681526020019060010190808311611756575b5050505050905090565b6117b2611b68565b73ffffffffffffffffffffffffffffffffffffffff166117d0610dd7565b73ffffffffffffffffffffffffffffffffffffffff1614611826576040517f08c379a000000000000000000000000000000000000000000000000000000000815260040161181d906125cb565b60405180910390fd5b60006005811115611860577f4e487b7100000000000000000000000000000000000000000000000000000000600052602160045260246000fd5b600560009054906101000a900460ff1660058111156118a8577f4e487b7100000000000000000000000000000000000000000000000000000000600052602160045260246000fd5b146118e8576040517f08c379a00000000000000000000000000000000000000000000000000000000081526004016118df906124cb565b60405180910390fd5b600460008273ffffffffffffffffffffffffffffffffffffffff1673ffffffffffffffffffffffffffffffffffffffff16815260200190815260200160002060000160009054906101000a900460ff1615611978576040517f08c379a000000000000000000000000000000000000000000000000000000000815260040161196f906125ab565b60405180910390fd5b6001600460008373ffffffffffffffffffffffffffffffffffffffff1673ffffffffffffffffffffffffffffffffffffffff16815260200190815260200160002060000160006101000a81548160ff0219169083151502179055506001819080600181540180825580915050600190039060005260206000200160009091909190916101000a81548173ffffffffffffffffffffffffffffffffffffffff021916908373ffffffffffffffffffffffffffffffffffffffff1602179055507fb6be2187d059cc2a55fe29e0e503b566e1e0f8c8780096e185429350acffd3dd81604051611a65919061236a565b60405180910390a150565b611a78611b68565b73ffffffffffffffffffffffffffffffffffffffff16611a96610dd7565b73ffffffffffffffffffffffffffffffffffffffff1614611aec576040517f08c379a0000000000000000000000000000000000000000000000000000000008152600401611ae3906125cb565b60405180910390fd5b600073ffffffffffffffffffffffffffffffffffffffff168173ffffffffffffffffffffffffffffffffffffffff161415611b5c576040517f08c379a0000000000000000000000000000000000000000000000000000000008152600401611b53906124ab565b60405180910390fd5b611b6581611b70565b50565b600033905090565b60008060009054906101000a900473ffffffffffffffffffffffffffffffffffffffff169050816000806101000a81548173ffffffffffffffffffffffffffffffffffffffff021916908373ffffffffffffffffffffffffffffffffffffffff1602179055508173ffffffffffffffffffffffffffffffffffffffff168173ffffffffffffffffffffffffffffffffffffffff167f8be0079c531659141344cd1fd0a4f28419497f9722a3daafe3b4186f6b6457e060405160405180910390a35050565b828054611c4090612849565b90600052602060002090601f016020900481019282611c625760008555611ca9565b82601f10611c7b57805160ff1916838001178555611ca9565b82800160010185558215611ca9579182015b82811115611ca8578251825591602001919060010190611c8d565b5b509050611cb69190611cba565b5090565b5b80821115611cd3576000816000905550600101611cbb565b5090565b6000611cea611ce584612697565b612666565b905082815260208101848484011115611d0257600080fd5b611d0d848285612807565b509392505050565b600081359050611d24816129a5565b92915050565b600082601f830112611d3b57600080fd5b8135611d4b848260208601611cd7565b91505092915050565b600081359050611d63816129bc565b92915050565b600060208284031215611d7b57600080fd5b6000611d8984828501611d15565b91505092915050565b600060208284031215611da457600080fd5b600082013567ffffffffffffffff811115611dbe57600080fd5b611dca84828501611d2a565b91505092915050565b600060208284031215611de557600080fd5b6000611df384828501611d54565b91505092915050565b6000611e088383611e28565b60208301905092915050565b6000611e20838361230f565b905092915050565b611e318161279a565b82525050565b611e408161279a565b82525050565b6000611e51826126e7565b611e5b8185612722565b9350611e66836126c7565b8060005b83811015611e97578151611e7e8882611dfc565b9750611e8983612708565b925050600181019050611e6a565b5085935050505092915050565b6000611eaf826126f2565b611eb98185612733565b935083602082028501611ecb856126d7565b8060005b85811015611f075784840389528151611ee88582611e14565b9450611ef383612715565b925060208a01995050600181019050611ecf565b50829750879550505050505092915050565b611f22816127ac565b82525050565b611f31816127f5565b82525050565b6000611f42826126fd565b611f4c8185612744565b9350611f5c818560208601612816565b611f6581612980565b840191505092915050565b6000611f7b826126fd565b611f858185612755565b9350611f95818560208601612816565b611f9e81612980565b840191505092915050565b6000611fb6602683612755565b91507f4f776e61626c653a206e6577206f776e657220697320746865207a65726f206160008301527f64647265737300000000000000000000000000000000000000000000000000006020830152604082019050919050565b600061201c600383612755565b91507f45523100000000000000000000000000000000000000000000000000000000006000830152602082019050919050565b600061205c600383612755565b91507f45523400000000000000000000000000000000000000000000000000000000006000830152602082019050919050565b600061209c600383612755565b91507f45523700000000000000000000000000000000000000000000000000000000006000830152602082019050919050565b60006120dc600383612755565b91507f45523600000000000000000000000000000000000000000000000000000000006000830152602082019050919050565b600061211c600383612755565b91507f45523300000000000000000000000000000000000000000000000000000000006000830152602082019050919050565b600061215c600383612755565b91507f45523800000000000000000000000000000000000000000000000000000000006000830152602082019050919050565b600061219c600383612755565b91507f45523500000000000000000000000000000000000000000000000000000000006000830152602082019050919050565b60006121dc600383612755565b91507f45523200000000000000000000000000000000000000000000000000000000006000830152602082019050919050565b600061221c602083612755565b91507f4f776e61626c653a2063616c6c6572206973206e6f7420746865206f776e65726000830152602082019050919050565b600061225c600483612755565b91507f45523130000000000000000000000000000000000000000000000000000000006000830152602082019050919050565b600061229c600483612755565b91507f45523131000000000000000000000000000000000000000000000000000000006000830152602082019050919050565b60006122dc600383612755565b91507f45523900000000000000000000000000000000000000000000000000000000006000830152602082019050919050565b6000604083016000830151848203600086015261232c8282611f37565b9150506020830151612341602086018261234c565b508091505092915050565b612355816127eb565b82525050565b612364816127eb565b82525050565b600060208201905061237f6000830184611e37565b92915050565b600060408201905061239a6000830185611e37565b6123a7602083018461235b565b9392505050565b600060208201905081810360008301526123c88184611e46565b905092915050565b600060208201905081810360008301526123ea8184611ea4565b905092915050565b60006080820190506124076000830187611f19565b6124146020830186611f19565b612421604083018561235b565b61242e606083018461235b565b95945050505050565b600060208201905061244c6000830184611f28565b92915050565b60006040820190506124676000830185611f28565b6124746020830184611f28565b9392505050565b600060408201905081810360008301526124958185611f70565b90506124a4602083018461235b565b9392505050565b600060208201905081810360008301526124c481611fa9565b9050919050565b600060208201905081810360008301526124e48161200f565b9050919050565b600060208201905081810360008301526125048161204f565b9050919050565b600060208201905081810360008301526125248161208f565b9050919050565b60006020820190508181036000830152612544816120cf565b9050919050565b600060208201905081810360008301526125648161210f565b9050919050565b600060208201905081810360008301526125848161214f565b9050919050565b600060208201905081810360008301526125a48161218f565b9050919050565b600060208201905081810360008301526125c4816121cf565b9050919050565b600060208201905081810360008301526125e48161220f565b9050919050565b600060208201905081810360008301526126048161224f565b9050919050565b600060208201905081810360008301526126248161228f565b9050919050565b60006020820190508181036000830152612644816122cf565b9050919050565b6000602082019050612660600083018461235b565b92915050565b6000604051905081810181811067ffffffffffffffff8211171561268d5761268c612951565b5b8060405250919050565b600067ffffffffffffffff8211156126b2576126b1612951565b5b601f19601f8301169050602081019050919050565b6000819050602082019050919050565b6000819050602082019050919050565b600081519050919050565b600081519050919050565b600081519050919050565b6000602082019050919050565b6000602082019050919050565b600082825260208201905092915050565b600082825260208201905092915050565b600082825260208201905092915050565b600082825260208201905092915050565b6000612771826127eb565b915061277c836127eb565b92508282101561278f5761278e6128c4565b5b828203905092915050565b60006127a5826127cb565b9050919050565b60008115159050919050565b60008190506127c682612991565b919050565b600073ffffffffffffffffffffffffffffffffffffffff82169050919050565b6000819050919050565b6000612800826127b8565b9050919050565b82818337600083830152505050565b60005b83811015612834578082015181840152602081019050612819565b83811115612843576000848401525b50505050565b6000600282049050600182168061286157607f821691505b6020821081141561287557612874612922565b5b50919050565b6000612886826127eb565b91507fffffffffffffffffffffffffffffffffffffffffffffffffffffffffffffffff8214156128b9576128b86128c4565b5b600182019050919050565b7f4e487b7100000000000000000000000000000000000000000000000000000000600052601160045260246000fd5b7f4e487b7100000000000000000000000000000000000000000000000000000000600052602160045260246000fd5b7f4e487b7100000000000000000000000000000000000000000000000000000000600052602260045260246000fd5b7f4e487b7100000000000000000000000000000000000000000000000000000000600052604160045260246000fd5b6000601f19601f8301169050919050565b600681106129a2576129a16128f3565b5b50565b6129ae8161279a565b81146129b957600080fd5b50565b6129c5816127eb565b81146129d057600080fd5b5056fea264697066735822122011f48ab49f4a7c49bbb7457dc67b6bdf870774481dbb76e3c530f61f99917fa764736f6c63430008000033",
  "immutableReferences": {},
  "source": "// SPDX-License-Identifier: UNLICENSED\r\npragma solidity 0.8.0;\r\n\r\nimport \"./Ownable.sol\";\r\n\r\ncontract Voting is Ownable {\r\n    \r\n    struct Voter {\r\n        bool isRegistered;\r\n        bool hasVoted;\r\n        uint proposalsCount;\r\n        uint votedProposalId;\r\n    }\r\n    \r\n    struct Proposal {\r\n        string description;\r\n        uint voteCount;\r\n    }\r\n    \r\n    enum WorkflowStatus {\r\n        RegisteringVoters,\r\n        ProposalsRegistrationStarted,\r\n        ProposalsRegistrationEnded,\r\n        VotingSessionStarted,\r\n        VotingSessionEnded,\r\n        VotesTallied\r\n    }\r\n    \r\n    address[] public whitelist;\r\n    Proposal[] public proposals;\r\n    uint public winningProposalId;\r\n    mapping (address => Voter) public voters;\r\n    WorkflowStatus public voteStatus;\r\n    \r\n    event VoterRegistered(address voterAddress);\r\n    event ProposalsRegistrationStarted();\r\n    event ProposalsRegistrationEnded();\r\n    event ProposalRegistered(uint proposalId);\r\n    event VotingSessionStarted();\r\n    event Voted (address voter, uint proposalId);\r\n    event VotingSessionEnded();\r\n    event VotesTallied();\r\n    event WorkflowStatusChange(WorkflowStatus previousStatus, WorkflowStatus newStatus);\r\n\r\n    /** @dev Return a list with all allowed address */\r\n    function getWhitelist() external view returns(address[] memory) {\r\n        return whitelist;\r\n    }\r\n    \r\n    /** @dev Return a list of proposals */\r\n    function getProposals() external view returns(Proposal[] memory) {\r\n        return proposals;\r\n    }\r\n    \r\n    /** @dev The administrator registers a voters of voters identified by their Ethereum address.\r\n     *  @param _address voter's ethereum address.\r\n     *  ER1 : The vote has already started.\r\n     *  ER2 : The voter already exist.\r\n     */ \r\n    function addToWhitelist(address _address) external onlyOwner {\r\n        require(voteStatus == WorkflowStatus.RegisteringVoters, \"ER1\");\r\n        require(!voters[_address].isRegistered, \"ER2\");\r\n        voters[_address].isRegistered = true;\r\n        whitelist.push(_address);\r\n\r\n        emit VoterRegistered(_address);\r\n    }\r\n    \r\n    /** @dev The administrator starts the proposal registration session.\r\n     *  ER1 : The vote has already started.\r\n     */ \r\n    function proposalsRegistrationStart() external onlyOwner {\r\n        require(voteStatus == WorkflowStatus.RegisteringVoters, \"ER1\");\r\n        voteStatus = WorkflowStatus.ProposalsRegistrationStarted;\r\n        \r\n        emit ProposalsRegistrationStarted();\r\n        emit WorkflowStatusChange(WorkflowStatus.RegisteringVoters, WorkflowStatus.ProposalsRegistrationStarted);\r\n    }\r\n    \r\n    /** @dev Registered voters are allowed to register their proposals while the registration session is active.\r\n     *  @param _description Content of the proposal.\r\n     *  ER3 : You're not allowed to vote.\r\n     *  ER4 : Registration has not yet started or is already ended.\r\n     *  ER5 : The number of proposals per voter is limited to 100.\r\n     */\r\n    function proposalsRegistration(string memory _description) external {\r\n        require(voters[msg.sender].isRegistered, \"ER3\");\r\n        require(voteStatus == WorkflowStatus.ProposalsRegistrationStarted, \"ER4\");\r\n        require(voters[msg.sender].proposalsCount <= 99, \"ER5\");\r\n        voters[msg.sender].proposalsCount ++;\r\n        proposals.push(Proposal(_description, 0));\r\n        \r\n        emit ProposalRegistered(proposals.length-1);\r\n    }\r\n    \r\n    /** @dev The administrator closes the proposal registration session.\r\n     *  ER6 : Registration has to be started\r\n     */\r\n    function proposalsRegistrationEnd() external onlyOwner {\r\n        require(voteStatus == WorkflowStatus.ProposalsRegistrationStarted, \"ER6\");\r\n        voteStatus = WorkflowStatus.ProposalsRegistrationEnded;\r\n        emit ProposalsRegistrationEnded();\r\n        emit WorkflowStatusChange(WorkflowStatus.ProposalsRegistrationStarted, WorkflowStatus.ProposalsRegistrationEnded);\r\n    }\r\n    \r\n    /** @dev Administrator starts the voting session.\r\n     *  ER7 : Registration has to be ended.\r\n     */\r\n    function votingSessionStart() external onlyOwner {\r\n        require(voteStatus == WorkflowStatus.ProposalsRegistrationEnded, \"ER7\");\r\n        voteStatus = WorkflowStatus.VotingSessionStarted;\r\n        emit VotingSessionStarted();\r\n        emit WorkflowStatusChange(WorkflowStatus.ProposalsRegistrationEnded, WorkflowStatus.VotingSessionStarted);\r\n    }\r\n    \r\n    /** @dev Registered voters vote for their preferred proposals.\r\n     *  @param proposalId Number of the voter's preferred proposal.\r\n     *  ER3 : You're not allowed to vote.\r\n     *  ER8 : You have already voted.\r\n     *  ER9 : Non-existent proposal.\r\n     *  ER10 : The voting session has to be started.\r\n     */\r\n    function vote(uint proposalId) external {\r\n        require(voters[msg.sender].isRegistered, \"ER3\");\r\n        require(!voters[msg.sender].hasVoted, \"ER8\");\r\n        require(proposalId <= proposals.length - 1, \"ER9\");\r\n        require(voteStatus == WorkflowStatus.VotingSessionStarted, \"ER10\");\r\n        \r\n        voters[msg.sender].hasVoted = true;\r\n        voters[msg.sender].votedProposalId = proposalId;\r\n        proposals[proposalId].voteCount ++;\r\n        \r\n        // Other method to count the vote\r\n        // if (proposals[proposalId].voteCount > proposals[winningProposalId].voteCount) {\r\n        //     winningProposalId = proposalId;\r\n        // }\r\n        \r\n        emit Voted(msg.sender, proposalId);\r\n    }\r\n    \r\n    /** @dev The administrator ends the voting session.\r\n     *  ER10 : The voting session has to be started.\r\n     */\r\n    function votingSessionEnd() external onlyOwner {\r\n        require(voteStatus == WorkflowStatus.VotingSessionStarted, \"ER10\");\r\n        voteStatus = WorkflowStatus.VotingSessionEnded;\r\n        emit VotingSessionEnded();\r\n        emit WorkflowStatusChange(WorkflowStatus.VotingSessionStarted , WorkflowStatus.VotingSessionEnded);\r\n    }\r\n    \r\n    /** @dev The administrator counts the votes.\r\n     *  ER11 : The voting session has to be ended.\r\n     */\r\n    function votesTally() external onlyOwner {\r\n        require(voteStatus == WorkflowStatus.VotingSessionEnded, \"ER11\");\r\n        uint _count;\r\n        uint _tempWinner;\r\n        for (uint i = 0; i < proposals.length; i++) {\r\n            if (proposals[i].voteCount > _count) {\r\n                _count = proposals[i].voteCount;\r\n                _tempWinner = i;\r\n            }\r\n            \r\n        }\r\n        winningProposalId = _tempWinner;\r\n        voteStatus = WorkflowStatus.VotesTallied;\r\n        emit VotesTallied();\r\n        emit WorkflowStatusChange(WorkflowStatus.VotingSessionEnded , WorkflowStatus.VotesTallied);\r\n    }\r\n}",
  "sourcePath": "D:\\TAF\\Alyra\\Cours\\DApp\\VotingDAppV1\\contracts\\Voting.sol",
  "compiler": {
    "name": "solc",
    "version": "0.8.0+commit.c7dfd78e.Emscripten.clang"
  },
  "schemaVersion": "3.4.3",
  "updatedAt": "2021-09-08T15:34:22.440Z",
  "networkType": "ethereum",
  "devdoc": {
    "kind": "dev",
    "methods": {
      "addToWhitelist(address)": {
        "details": "The administrator registers a voters of voters identified by their Ethereum address.",
        "params": {
          "_address": "voter's ethereum address.  ER1 : The vote has already started.  ER2 : The voter already exist."
        }
      },
      "getProposals()": {
        "details": "Return a list of proposals "
      },
      "getWhitelist()": {
        "details": "Return a list with all allowed address "
      },
      "owner()": {
        "details": "Returns the address of the current owner."
      },
      "proposalsRegistration(string)": {
        "details": "Registered voters are allowed to register their proposals while the registration session is active.",
        "params": {
          "_description": "Content of the proposal.  ER3 : You're not allowed to vote.  ER4 : Registration has not yet started or is already ended.  ER5 : The number of proposals per voter is limited to 100."
        }
      },
      "proposalsRegistrationEnd()": {
        "details": "The administrator closes the proposal registration session.  ER6 : Registration has to be started"
      },
      "proposalsRegistrationStart()": {
        "details": "The administrator starts the proposal registration session.  ER1 : The vote has already started."
      },
      "renounceOwnership()": {
        "details": "Leaves the contract without owner. It will not be possible to call `onlyOwner` functions anymore. Can only be called by the current owner. NOTE: Renouncing ownership will leave the contract without an owner, thereby removing any functionality that is only available to the owner."
      },
      "transferOwnership(address)": {
        "details": "Transfers ownership of the contract to a new account (`newOwner`). Can only be called by the current owner."
      },
      "vote(uint256)": {
        "details": "Registered voters vote for their preferred proposals.",
        "params": {
          "proposalId": "Number of the voter's preferred proposal.  ER3 : You're not allowed to vote.  ER8 : You have already voted.  ER9 : Non-existent proposal.  ER10 : The voting session has to be started."
        }
      },
      "votesTally()": {
        "details": "The administrator counts the votes.  ER11 : The voting session has to be ended."
      },
      "votingSessionEnd()": {
        "details": "The administrator ends the voting session.  ER10 : The voting session has to be started."
      },
      "votingSessionStart()": {
        "details": "Administrator starts the voting session.  ER7 : Registration has to be ended."
      }
    },
    "version": 1
  },
  "userdoc": {
    "kind": "user",
    "methods": {},
    "version": 1
  }
}